S123000078340820DD010000E5010000E7010000E9010000EB010000ED0100001EC0F7DFE4
S1230020000000000000000000000000EF010000F101000000000000F301000035020000AF
S1230040F7010000F7010000F7010000F7010000F70100006B660000F7010000F701000003
S1230060F7010000F7010000F7010000F7010000F7010000F7010000F7010000F7010000BC
S1230080F7010000F7010000F7010000F7010000F7010000F7010000F7010000F70100009C
S12300A0F7010000F7010000F701000041020000F7010000F7010000F7010000F701000031
S12300C0F7010000F7010000F701000000F002F800F075F80AA090E8000C82448344AAF197
S12300E00107DA4501D100F06AF8AFF2090EBAE80F0013F0010F18BFFB1A43F001031847B3
S123010074C20000B4C200000A4410F8014B14F00F0508BF10F8015B240908BF10F8014B02
S12301206D1E05D010F8013B6D1E01F8013BF9D1641E03D0641E01F8015BFBD19142E4D30B
S123014070470000103A24BF78C878C1FAD8520724BF30C830C144BF04680C6070470000B5
S12301600023002400250026103A28BF78C1FBD8520728BF30C148BF0B60704766290BF0C8
S12301803B85642906F05C87752906F05987002070471FB59DE8030007F0E4FA07F04AFE7A
S12301A00400002000210AF02BFA401C6060002000210AF00FFAE0601FBD10B510BD08F0D1
S12301C076F91146FFF7E5FF02F094FE08F094F903B4FFF7F2FF03BC06F0A2FD0948804768
S12301E009480047FEE7FEE7FEE7FEE7FEE7FEE7FEE7FEE7FEE7FEE704480549054A064B37
S12302007047000099040000CD00000078060010783408207876001078C4072000BFFEE752
S123022000200249088002490880704718C007201AC007201E480068401C1D49086070478E
S12302401B20012181401B4A430942F8231000BF00BF01218140184A430942F8231000BF23
S12302601648C068164908601448C06848601348C06888601148C068C8601048C068086104
S12302800E48C06848610D48C06888610B48C068C86101200B4908701B20012181404209D3
S12302A0920002F1E022C2F8001100BF70470000DC05001080E100E080E200E000800A4034
S12302C0F8050010C00500107047B2F120030AD5C2F1200320FA02F001FA03F321FA02F1FB
S12302E040EA0300704721FA03F04FF00001704706F0D0BC7047704770470000FFFFFFFF6E
S12303002DE9F04799480068C0F3016003287DD196488430006800F0030030B1012830D0BF
S1230320022859D003282BD100E000BF8F480068C0F30740441C02218C488838D0F8880000
S1230340C0F30E00401CA1FB0001894B4FF0000CA0FB037901FB039100FB0C1122466346F0
S1230360384606F0C1FD054680487C300068C0B2441C22460023284606F0B6FD7D4908607E
S123038056E07A480068C0F30740441C022177488838D0F88800C0F30E00401CA1FB0010E4
S12303A0754A4FF0000CA1FB027900FB029001FB0C0122466346384606F096FD05466B486C
S12303C07C300068C0B2441C22460023284606F08BFD684908602BE064480068C0F307408A
S12303E0441C022161488838D0F88800C0F30E00401CA1FB00124FF400400023A1FB007937
S123040002FB009001FB0301224600E011E0384606F06AFD054655487C300068C0B2441C69
S123042022460023284606F05FFD5249086000BF30E04E488430006800F0030030B10128EC
S123044010D0022819D0032823D100E000BF47487C300068C0B2401C4549B1FBF0F04549CE
S1230460086016E041487C300068C0B2401C4249B1FBF0F03F4908600BE03C487C30006825
S1230480C0B2401C4FF40041B1FBF0F03949086000BF00BFBDE8F087302038490860334842
S12304A08838D0F8A00100F0200030B100BF3348006800F040000028F9D003202B497C3117
S12304C008604FF0807029498839C1F8A80140102A490C3108600120244984310860284869
S12304E02249091F0860AA202049091D08605520086001201D4908390860AA201B49091DDB
S12305000860552019498839C1F88C0000BF1748006800F080600028F9D00320134908398B
S12305200860AA2011498839C1F88C0055200F49091D086000BF0D48006800F04070B0F10D
S1230540407FF8D105200949803108600D4807498839C1F8C4000020C1F8C8010846006844
S123056020F4704040F480400860704788C00F4000093D000005001000366E01A0C10F4059
S12305807C0011000E930008F0B504460B461546194660003B4A102901D31039401C52F846
S12305A020604FEA410C032707FA0CF7BE4342F8206052F820604F0005FA07F73E4342F877
S12305C02060F0BDF0B504460B461546194660002C4A4032102901D31039401C52F820602C
S12305E04FEA410C032707FA0CF7BE4342F8206052F820604F0005FA07F73E4342F8206037
S1230600F0BD30B50B461F496831012A07D151F8204001259D402C4341F8204006E051F80C
S1230620204001259D40AC4341F8204030BD012806D11449896A41F00801124A916206E01F
S123064028B91049896A21F008010E4A91627047012800D1052201B90A220A4BDA677047F9
S123066010B50446A27861782078FFF78DFFE27861782078FFF7A6FF227961782078FFF7F2
S1230680C0FF10BD00C002402DE9F04105460F46DB48854200D103E04621DAA0FFF7BEFDB1
S12306A0D748854204D1102001F0C6FA064601E0BDE8F081082408E007FB04F8B04500D37D
S12306C004E0A41CFE2C00D300E0F5E700BFE0B2E86000BFECE710B50446C948844200D1D7
S12306E003E06821C7A0FFF799FDC548844203D10021801501F0BDFA10BD10B50446C048AE
S1230700844200D103E07721BEA0FFF787FD2068C0F3032010BD70B505460C46B848854237
S123072000D103E08821B7A0FFF778FDB448854204D10121801501F09CFA00E070BDD4E9F6
S1230740010108432169084321680843E168084340F0040040F6FC7100EA01062E60284647
S12307606169FFF791FFE86900F0010008B10120E86100BFE2E7002141608160A949416101
S1230780002101614FF4006101602021C16070470246106800F008034B6000F010038B6060
S12307A0D3684B6100F040030B61C0F303230B6000F04003CB60704770B504460D469048BC
S12307C0844200D103E0D8218EA0FFF727FDA8B2A06070BD10B504468948844200D103E079
S12307E0E62188A0FFF71AFDA06880B210BD70B504460D468248844200D104E04FF4BC713B
S123080080A0FFF70BFD0DB1012D00D104E040F279117CA0FFF702FD012D04D1206840F08D
S12308208000206004E0206840F67C710840206070BD2DE9F74F82B006460C46B06801905B
S1230840706801900020E06020613046FFF755FF082801D1002500E00125049800285BD16D
S123086025B9D4F80480D4F8009003E0D4F804A0D4F800B047E0206858B925B9FF213046E7
S1230880FFF79AFF15E04FF6FF713046FFF794FF0FE03DB999F800103046FFF78DFF09F1A4
S12308A0010906E0BBF800103046FFF785FF0BF1020B00BF776807F080000028FAD007F08A
S12308C0780030B147F400702061E06805B0BDE8F08F3046FFF77EFF0190606858B12DB93D
S12308E0019888F8000008F1010804E00198AAF800000AF1020A1DB9E068401CE06002E017
S1230900E068801CE060D4E902108842B3D347F480702061E068D9E7F06900F0010008B1D9
S12309200120F061D4E9021088421ED2206858B925B9FF213046FFF73FFF11E04FF6FF71D1
S12309403046FFF739FF0BE02DB9206801783046FFF732FF04E0206801883046FFF72CFFF4
S123096001213046FFF743FF02E04FF4807020610020ABE710B504462148844200D104E068
S123098040F28D111FA0FFF749FCE06900F0010010BD10B504461A48844200D104E040F264
S12309A0991118A0FFF73AFC0120E06110BD10B504461348844200D104E04FF4D67111A056
S12309C0FFF72CFC606800F0F80010BD70B505460C46082C07D0102C05D0202C03D0402C0F
S12309E001D0802C00D104E040F2C11105A0FFF715FC05EA040008B1012070BD0020FCE714
S1230A0000000240736F757263655C647269766572735C6C7063313778785F7370692E6375
S1230A200000000040420F002DE9F04F8BB00446894600200990F748844204D1062001F0CE
S1230A40FBF8074616E0F448844204D1082001F0F3F807460EE0F148844204D1302001F031
S1230A60EBF8074606E0EE48844203D1322001F0E3F807464FF0FF3B002007900690002536
S1230A802E464FF001084DE00020089040E00898404400FB09FC0020010741EA17113807B3
S1230AA00022A0FB083E01FB08E100FB02106246CDE900300023DDE9000106F015FACDE90A
S1230AC0040104980390DDF814A00398B0F1004F04D90398404203900AF1010ABAF1000F7D
S1230AE002D0BAF5803F00D90FE0039858450BD2DDF80CB00026554608980790CDF81880EF
S1230B00BBF1000F00D106E000BF0898401C089008984045BBD300BFBBF1000F00D104E02A
S1230B2008F10108B8F10F0FAED900BF002185EA01007140084302D10BB0BDE8F08F380922
S1230B40069900FB01FC0846079908440021A0FB052301FB053100FB06100346CDE900207A
S1230B606046002106F0C0F902900298814503D90298A9EB000B02E00298A0EB090B642055
S1230B800BFB00F0B0FBF9FBBBF1030F32D2A248844216D1207B40F080002073280A40EA29
S1230BA0066020712570207B00F07F002073F021069801EA0010079901F00F010843A06270
S1230BC016E0207B40F080002073280A40EA066020712570207B00F07F002073F021069809
S1230BE001EA0010079901F00F01084384F828000120099009989FE770B504460D468548F6
S1230C00844208D08448844205D08448844202D08348844200D103E0CF2182A0FFF7FEFA22
S1230C20687940B16879012805D06879022802D06879032800D103E0D0217AA0FFF7EEFA79
S1230C40A87910B1A879012800D103E0D12175A0FFF7E4FA287958B12879012808D02879E8
S1230C60022805D02879032802D02879042800D103E0D2216BA0FFF7D1FA6648844203D14B
S1230C800121082000F0F5FF6348844203D10121102000F0EEFF6148844203D1012108063B
S1230CA000F0E7FF5E48844203D10121480600F0E0FF5948844223D1072020720020207215
S1230CC000E02678207D00F001000028F9D1802084F8300000BF207D00F020000028FAD068
S1230CE0002084F83000606020732062207484F84C0084F8540084F85000267E267D1AE016
S1230D00072020720020207200E02678207D00F001000028F9D1802084F8300000BF207DBE
S1230D2000F020000028FAD0002084F83000606020732062267D3A48844202D1002084F8B2
S1230D40240020462968FFF76FFE3348844203D1207B00F0C00602E0207B00F0C006687997
S1230D6030B1012806D0022807D0032808D108E000BF09E046F0010606E046F0020603E0B6
S1230D8000BF46F0030600BF00BF2879C0B146F008062879012806D0022806D0032807D0DB
S1230DA004280BD107E000BF09E046F0100606E046F0200603E046F0300600E000BF00BF5D
S1230DC0A87928B1012802D146F0040601E000BF00BF00BF1048844201D1267300E02673B9
S1230DE070BD70B504460D460A48844208D00A48844205D00948844202D00948844200D152
S1230E0004E04FF47C7107A0FFF708FA0DB1012D18D11DE000C0004000000140008009403F
S1230E2000C00940736F757263655C647269766572735C6C7063313778785F756172742E7D
S1230E406300000040F2F131AFF22800FFF7E6F9012D10D1F948844206D194F8300040F060
S1230E60800084F8300014E094F8300040F0800084F830000DE0F148844205D194F83000B8
S1230E80002084F8300004E094F83000002084F8300070BD10B50446E948844208D0E748DC
S1230EA0844205D0E748844202D0E748844200D105E040F29B11AFF29400FFF7AFF900214F
S1230EC02046FFF78EFFDE48844203D10021082000F0CFFED948844203D10021102000F063
S1230EE0C8FED848844204D100214FF0807000F0C0FED548844204D100214FF0007000F0F7
S1230F00B8FE10BD4FF41651016003214171002101718171704770B504460D46C848844295
S1230F2008D0C648844205D0C648844202D0C648844200D105E040F2DF11AFF21810FFF71B
S1230F406DF9BE48844201D1257000E0257070BD10B50446BA48844208D0B848844205D008
S1230F60B848844202D0B848844200D105E04FF4FC71AFF25010FFF751F9B048844201D1D8
S1230F80207810BD2078FCE72DE9FF5F80468A46934657465C460398012825D1002520E06C
S1230FA04FF0FF3905E0B9F1000F00D107E0A9F1010998F8140000F020000028F3D000BF5E
S1230FC0B9F1000F00D10EE0102607E017F8011B4046FFF7A0FF761E641E6D1C0EB1002CA8
S1230FE0F4D1002CDCD117E0002512E098F8140000F0200000B90EE0102607E017F8011B9E
S12310004046FFF788FF641E761E6D1C0EB1002CF4D1002CEAD100BF284604B0BDE8F09F7E
S12310202DE9F05F0746894692469B464E465546BBF1010F1ED1002419E04FF0FF3805E020
S1231040B8F1000F00D106E0A8F10108387D00F001000028F4D000BFB8F1000F00D108E0B9
S12310603846FFF775FF06F8010B6D1E641C002DE3D110E000240BE0387D00F0010000B930
S123108008E03846FFF764FF06F8010B641C6D1E002DF1D100BF2046BDE8F09F10B5044621
S12310A06748844208D06548844205D06548844202D06548844200D105E040F28A21AFF2AB
S12310C09C20FFF7ABF85D48844204D1207B40F04000207303E0207B40F04000207310BD8B
S12310E02DE9F04104460D4617465548844208D05248844205D05348844202D052488442A8
S123110000D105E040F2B121AFF2E820FFF786F80FB1012F00D105E040F2B221AFF2FC208C
S1231120FFF77CF8072D15D2DFE805F00406080A0C0E110001260DE002260BE0042609E0E9
S1231140082607E0802605E04FF4807602E04FF4007600BF00BF3948844214D15DB1012D31
S123116009D0022D07D0052D05D0062D03D0032D01D0042D00D116E040F2CE21AFF25C3038
S1231180FFF74CF80FE03DB1012D05D0022D03D0052D01D0062D00D105E040F2D221AFF27D
S12311A07C30FFF73BF8012F0AD12448844203D160683043606013E06068304360600FE06D
S12311C01E48844206D1606840F28F31B1430840606005E0606840F20731B143084060603F
S12311E0BDE8F08110B504461548844208D01348844205D01348844202D01348844200D1F0
S123120005E04FF44071AFF2E430FFF707F80B48844201D1007D10BD207DFCE710B5044683
S12312200748844208D00548844205D00548844202D00548844209D10EE0000000000140D4
S123124000C000400080094000C0094040F21731AFF23040FEF7E2FFA06840F2CF310840D5
S123126010BD0146087D00F0400008B1002070470120FCE770B506460C460025F74886421E
S123128008D0F748864205D0F648864202D0F648864200D105E040F23D31AFF27840FEF714
S12312A0BDFFE07840B1E078012805D0E078022802D0E078032800D105E040F23E31AFF200
S12312C09C40FEF7ABFFA07810B1A078012800D105E040F23F31AFF2B440FEF79FFF20785D
S12312E010B12078012800D105E04FF45071AFF2CC40FEF793FF607810B16078012800D10F
S123130005E040F24131AFF2E440FEF787FF45F00105E07830B1012806D0022807D0032861
S123132008D108E000BF09E045F0400506E045F0800503E000BF45F0C00500BF00BF607834
S1231340012801D145F004052078012801D145F00205A078012801D145F00805C04886425C
S123136003D105F0CF00307202E005F0CF00307270BD00218170C17001210170417070477C
S12313802DE9F04104460F461546B448844208D0B348844205D0B348844202D0B248844285
S12313A000D105E04FF46671AFF28850FEF736FF0DB1012D00D105E040F29931AFF29C508B
S12313C0FEF72CFF0026012D09D13878012801D146F002067878012801D146F00406A048BF
S12313E0844215D1012D10D1207B40F080002073002020702071207B20F080002073102021
S1231400A06246F00100206218E00020206215E0012D11D1207B40F08000207300202070E0
S12314202071207B20F080002073102084F8280046F00100206201E000202062BDE8F08133
S123144070B504460D468548844208D08448844205D08448844202D08348844200D105E049
S123146040F2D931AFF24460FEF7D8FE7C48844203D1206A2843206202E0206A28432062EE
S123148070BD70B504460D467748844200D105E040F21A41AFF27460FEF7C0FE0DB1012D7D
S12314A000D105E040F21B41AFF28860FEF7B6FE012D06D194F8240040F0020084F824002B
S12314C006E02DB994F8240000F03D0084F8240070BD70B504460D466348844200D105E0A9
S12314E040F23241AFF2C460FEF798FE0DB1012D00D105E040F23341AFF2D860FEF78EFE51
S1231500012D06D194F8240040F0010084F8240005E094F8240000F03E0084F8240070BDB1
S12315202DE9F04105460C464F48854200D105E040F25341AFF21470FEF770FE6CB1012C17
S12315400BD0022C09D0032C07D0042C05D0052C03D0062C01D0072C00D105E040F25441E3
S1231560AFF24070FEF75AFE6007870E95F8240020F0380647F00400064306F03F0085F898
S12315802400BDE8F0812DE9F04104460D46164600273348844200D105E040F27341AFF228
S12315A07C70FEF73BFE0DB1012D00D105E040F27441AFF29070FEF731FE0EB1012E00D100
S12315C005E040F27541AFF2A470FEF727FE15B1012D04D101E0012702E0022700E000BFEF
S12315E000BF012E03D1207C3843207404E0207CF321B94308402074BDE8F0812DE9F041B1
S123160004460D4617461648844200D105E040F29B41AFF2F070FEF701FE1DB1012D01D022
S1231620022D00D105E040F29C41AFF60800FEF7F5FD0FB1012F00D105E040F29D41AFF6C3
S12316401C00FEF7EBFD25B1012D04D0022D0FD10CE010260DE040260BE0000000C0004046
S1231660000001400080094000C00940802600E000BF00BF012F03D1207C3043207404E0C4
S1231680207CF321B14308402074BDE8F08110B504467948844200D105E040F2C641AFF686
S12316A07C00FEF7BBFD207E10BD70B506460C467148864200D105E040F2DA41AFF69C000A
S12316C0FEF7ACFDA07810B1A078012800D105E040F2DB41AFF6B400FEF7A0FDE07810B146
S12316E0E078012800D105E040F2DC41AFF6CC00FEF794FDE079FF2800DA05E040F2DD41DA
S1231700AFF6E000FEF78AFD607910B16079012800D105E040F2DE41AFF6F800FEF77EFD14
S1231720207910B12079012800D105E040F2DF41AFF61010FEF772FDA079FF2800DA05E059
S12317404FF49C61AFF62410FEF768FD207810B12078012800D105E040F2E141AFF63C10FD
S1231760FEF75CFD607810B16078012800D105E040F2E241AFF65410FEF750FD0025E078AA
S123178001280ED145F010056079012801D145F020052079012801D145F00805E07986F818
S12317A054002078012801D145F00105A078012804D145F00405A07986F85000607808B92F
S12317C045F0020505F03F0086F84C00307B40F03800307370BD012906D190F84C2022F0E1
S12317E0020280F84C2005E090F84C2042F0020280F84C2070472DE9F04704468946924615
S12318001F46A7B1257BA84628F0100884F80C800123524649462046FFF7B6FB064600BFDE
S1231820207D00F040000028FAD025730CE00123524649462046FFF7A7FB064600BF207D70
S123184000F040000028FAD03046BDE8F08713B5044601231A4601A92046FFF7CCFF1CBD90
S123186070B504460D4616460023324629462046FFF7C1FF70BD0000000001402DE9F0416B
S123188004460D46C248844200D103E04821C1A0FEF7C4FC1DB1C748854200D803E04921DB
S12318A0BCA0FEF7BBFC0121080300F0E2F9002020604FF40018182000F0BEF9064605EB0E
S12318C0851707EB46007900B0FBF1F0471E48EA0728C4F80080BDE8F08110B50446AC4810
S12318E0844200D103E06921AAA0FEF797FC206800F0E06018B1206820F0E06020602068AD
S123190020F0FF002060206820F40010206000214FF4805000F0ADF910BD014601B100BFB9
S123192000BF9B48103050F82120C2F30B10704770B505460C469648854200D103E09521E0
S123194094A0FEF76BFC6CB1012C0BD0022C09D0032C07D0042C05D0052C03D0062C01D0B5
S1231960072C00D103E096218AA0FEF757FC286820F0E0602860286840EA0460286070BD18
S123198070B504460D468248844200D103E0A72180A0FEF743FC206820F4803020601DB187
S12319A0206840F48030206070BD70B504460D467748844200D103E0B92176A0FEF72EFC00
S12319C0206820F4001020601DB1206840F40010206070BD70B504460D466D48844200D182
S12319E003E0CB216BA0FEF719FC0DB1012D00D103E0CC2167A0FEF711FC206820F0006071
S1231A0020601DB1206840F00060206070BD70B505460C4616465E48854200D103E0E4216B
S1231A205CA0FEF7FBFB7CB1012C0DD0022C0BD0032C09D0042C07D0052C05D0062C03D061
S1231A40072C01D0082C00D103E0E52151A0FEF7E5FBE8680121A1408843E86026B1E9683C
S1231A600120A0400143E96070BD70B504460D4616464748844200D103E0F72145A0FEF78E
S1231A80CDFB05B100BF00BF012E05D120680121A940084320600CE0206800F0E06018B176
S1231AA0206820F0E060206020680121A9408843206070BD70B504460D463548844200D1E9
S1231AC004E040F20D1133A0FEF7A8FB05B100BF00BF04F1100050F82560C6F30B1070BD5C
S1231AE02DE9F04107460E4614462948874200D104E040F2211127A0FEF790FB06B100BF90
S1231B0000BF0CB1012C00D104E040F2231121A0FEF784FB07F1100050F8265014B105F048
S1231B20004501E005F0804515B10120BDE8F0810020FBE710B504461548844200D104E0DB
S1231B404FF49D7113A0FEF769FB606810BD70B506460C460E48864200D104E040F24B116B
S1231B600CA0FEF75BFB0CB1012C00D104E04FF4A67108A0FEF752FB756814B105F00045AB
S1231B8001E005F080450DB1012070BD0020FCE700400340736F757263655C64726976650D
S1231BA072735C6C7063313778785F6164632E6300000000400D030010B50A46202801D2B1
S1231BC0034601E0A0F120031946202810D2454B1B6803248C40A343434CC4F8A831414BFE
S1231BE01B6802FA01F423433F4CC4F8A83111E03C4B1B1D1B6803248C40A3433A4CC4F899
S1231C00AC31384B1B1D1B6802FA01F42343364CC4F8AC3110BD0146202903D20A46314B35
S1231C20186804E0A1F120022E4B1B1D186820FA02F303F00300704770B506462B4804684B
S1231C403046FFF7E8FF054635B1012D06D0022D06D0032D08D105E0042505E0012503E0EE
S1231C60022501E0082500BF00BFB4FBF5F4204670BD012909D11C4AC43212681C4B0340FE
S1231C801A43194BC3F8C42009E041B9164AC4321268174B83431A40134BC3F8C4207047F7
S1231CA000201149C031086030BF704704201149086000200C49C031086030BF7047042029
S1231CC00C49086001200849C031086030BF704704200849086003200349C031086030BF3E
S1231CE070470000A8C10F4000C00F4000050010DEF7EFEF10ED00E001460020052912D244
S1231D00DFE801F00305080B0E00FB480CE0FA48203009E0F848403006E0F748603003E0EC
S1231D20F548803000E000BF00BF704701460020052912D2DFE801F00305080B0E00EE480D
S1231D400CE0ED48203009E0EB48403006E0EA48603003E0E848803000E000BF00BF704702
S1231D6001460020052912D2DFE801F00305080B0E00E1480CE0E048203009E0DE484030F9
S1231D8006E0DD48603003E0DB48803000E000BF00BF70472DE9F04107460D461646384618
S1231DA0FFF7AAFF04463CB11EB120682843206002E02068A8432060BDE8F08170B50646AB
S1231DC00C463046FFF798FF054605B1AC6170BD70B506460C463046FFF78EFF054605B1B2
S1231DE0EC6170BD70B505462846FFF785FF04460CB1606970BD0020FCE718B912B9BF4B67
S1231E00196017E0022804D11AB9BC4B2033196010E028B9012A03D1B84B1B1D196009E03C
S1231E20022805D1012A03D1B44B2433196001E000BFFEE7704703463BB932B9AF480C3831
S1231E400068C84000F001007047022B07D132B9AA4814300068C84000F00100F4E743B908
S1231E60012A06D1A54808380068C84000F00100EAE7022B08D1012A06D1A048183000685D
S1231E80C84000F00100DFE700BFFEE718B99B4A121F116007E0022803D1984A1C321160FD
S1231EA001E000BFFEE7704770B504460D461646324629462046FFF76DFF70BD70B5044679
S1231EC00D4629462046FFF779FF70BD70B504460D4629462046FFF77BFF70BD10B50446F8
S1231EE02046FFF77FFF10BD70B504460D461646324629462046FFF780FF70BD70B50446BB
S1231F000D461646324629462046FFF794FF70BD10B503460C4621461846FFF7B7FF10BD6D
S1231F202DE9F04107460D4616463846FFF7E4FE04463CB11EB120692843206102E020691E
S1231F40A8432061BDE8F0812DE9F04180460E4615461F464046FFF7E9FE04468CB147B1F8
S1231F601EB16088284360800BE020882843208007E01EB16088A843608002E02088A843DF
S1231F802080BDE8F0812DE9F04180460E4615461F464046FFF7CAFE04468CB147B11EB1D4
S1231FA0608A284360820BE0208A2843208207E01EB1608AA843608202E0208AA8432082BE
S1231FC0BDE8F0812DE9F04107460E4614463846FFF7ACFE05461DB10EB16C8300E02C8331
S1231FE0BDE8F0812DE9F04107460E4614463846FFF79CFE05461DB10EB1EC8300E0AC8321
S1232000BDE8F08170B506460D463046FFF78EFE044624B10DB1E08A70BDA08AFCE7002049
S1232020FAE72DE9F04180460C4616461F464046FFF796FE05465DB12FB1032C08DC285DBA
S12320403043285504E0032C02DC285DB0432855BDE8F0812DE9F04180460C4616461F4670
S12320604046FFF77DFE05469DB14FB1032C10DC05F11000005D304305F11001085508E08F
S1232080032C06DC05F11000005DB04305F110010855BDE8F0812DE9F04107460C4615461A
S12320A03846FFF75DFE064626B1032C02DC06F118000555BDE8F0812DE9F04107460C46B8
S12320C015463846FFF74CFE064626B1032C02DC06F11C000555BDE8F08170B506460C466D
S12320E03046FFF73DFE054655B1032C08DC05F11400005D70BD000000C009209080024002
S12321000020F7E770B504460D46F748844200D103E04821F5A0FEF781F80DB1012D00D119
S123212003E04921F1A0FEF779F81DB9206800F0030602E0606800F0030616B1012E04D192
S123214001E0082070BD1020FCE72020FAE770B504460D46E448844200D103E06521E3A0A0
S1232160FEF75CF80DB1012D00D103E06621DFA0FEF754F81DB92068C0F3800602E06068EA
S1232180C0F38006012E01D1012070BD0220FCE710B50446D448844200D103E08021D3A0F5
S12321A0FEF73CF80121C806FFF763FD0020CE490860486010BD2DE9F04106460F46144656
S12321C0C948864200D103E09821C8A0FEF726F8207828B12078012802D02078032800D1A2
S12321E003E09A21C1A0FEF719F8607810B16078012800D103E09B21BCA0FEF70FF8A0785C
S1232200012801D0A07800B903E09C21B7A0FEF705F8E078012801D0E07800B903E09D2102
S1232220B2A0FDF7FBFF207910B12079012800D103E09E21ADA0FDF7F1FF6079012801D0C7
S1232240607900B903E09F21A8A0FDF7E7FF2078401C4FEAC008A8F101008001217940EA4F
S12322604110E17840EA0110A17840EAC100617840EA8100217840EA0105012F02D19A483F
S1232280456001E098480560BDE8F08110B504469548844200D103E0B52194A0FDF7BEFF38
S12322A000214FF00060FFF7E4FC10BD70B504460D468D48844200D103E0C5218BA0FDF7A1
S12322C0ADFF0DB1012D00D103E0C62187A0FDF7A5FF1DB92069C0F3074070BD2069C0F346
S12322E00720FAE7016821F010010160416821F010014160016821F008010160416821F0DC
S123230008014160016821F400410160704770B504460D467448844200D103E0E82173A024
S1232320FDF77CFFA56070BD10B504466E48844200D103E0F3216DA0FDF770FFE06810BD20
S123234070B504460D466848844200D104E04FF4817166A0FDF762FF0DB1012D00D104E05B
S123236040F2031161A0FDF759FF25B9206840F00800206003E0606840F00800606070BDD8
S123238070B504460D465848844200D104E040F2171156A0FDF742FF0DB1012D00D104E036
S12323A04FF48C7151A0FDF739FF25B9206840F40040206003E0606840F40040606070BD56
S12323C070B504460D464848844200D104E04FF4967146A0FDF722FF0DB1012D00D104E046
S12323E040F22D1141A0FDF719FF65B9206820F400402060206840F008002060206840F00A
S12324001000206007E0606840F008006060606840F01000606070BD2DE9F04F89B00646B2
S12324200C4690464FF6FF70039000200290019000902D48864200D104E04FF4A9712BA03C
S1232440FDF7ECFEB4F57A5F03D33048844200D804E040F2531125A0FDF7E0FEB8F1000F63
S123246002D0B8F1010F00D104E04FF4AA711FA0FDF7D4FE3620FFF7DFFB0890B8F1000FBF
S12324800AD100213046FFF762FE079000213046FFF738FE834609E001213046FFF757FE81
S12324A0079001213046FFF72DFE8346079800FB0BF00290029841000898B0FBF1F0019040
S12324C04FF0400A56E0FF274FE00AFB07F188B204FB00F1019AB1FBF2F5FF2D02D80DB1CB
S12324E0BD4215D940E0000000800A40736F757263655C647269766572735C6C7063313712
S123250078785F6932732E63000000000077010001996943B1FBF0F106910699A14204D988
S12325200699091B1FFA81F903E00699611A1FFA81F9B9F1000F0AD00399894507DB039936
S1232540894510D1B7FBF5F105FB117159B9CDF80C90B9B20491A9B20591CDF800A0B9F13B
S1232560000F00D103E000BF7F1E002FADD100BFAAF1010ABAF1000FA5D1009818B900206D
S123258009B0BDE8F08FB8F1000F08D10098401EB062DDE9040140EA0120306207E000989A
S12325A0401EF062DDE9040140EA012070620120E6E770B504460E461546E448844200D1B0
S12325C005E040F2AD11AFF2DC00FDF727FE3F2E00DC05E04FF4D771AFF2F000FDF71EFE32
S12325E00DB1012D00D105E040F2AF11AFF20410FDF714FE0DB9A66200E0E66270BD70B540
S123260004460D461646D148844200D105E04FF4E471AFF22810FDF701FE287810B12878C3
S1232620022800D105E040F2C911AFF24010FDF7F5FD6878012801D0687800B905E04FF438
S1232640E571AFF25810FDF7E9FDA878012801D0A87800B905E040F2CB11AFF27010FDF742
S1232660DDFD0EB1012E00D105E04FF4E671AFF28410FDF7D3FDCEB9206B20F00F00206391
S12326802878022803D1206B40F0020020636878012803D1206B40F004002063A8780128F0
S12326A01DD1206B40F00800206318E0606B20F00F0060632878022803D1606B40F00200A2
S12326C060636878012803D1606B40F004006063A878012803D1606B40F00800606370BD84
S12326E070B506460C4615469848864200D105E040F2F311AFF20C20FDF790FD207810B17D
S12327002078012800D105E04FF4FA71AFF22420FDF784FD60781F2800DC05E040F2F5111E
S1232720AFF23820FDF77AFD0DB1012D00D105E04FF4FB71AFF24C20FDF770FD012D0BD168
S1232740207820B960780002804948610FE0607800027E4988610AE0207820B96078000408
S12327607A49486103E0607800047849886170BD2DE9F04104460E4617461D46734884422D
S123278000D105E04FF40671AFF2A020FDF746FD0DB1012D00D105E040F21921AFF2B420AA
S12327A0FDF73CFD0EB1012E00D105E040F21A21AFF2C820FDF732FD0FB1012F00D105E085
S12327C040F21B21AFF2DC20FDF728FD012F18D15EB9012D04D1606940F00100606128E0DB
S12327E0606920F00100606123E0012D04D1A06940F00100A0611CE0A06920F00100A061E2
S123280017E05EB9012D04D1606940F0020060610FE0606920F0020060610AE0012D04D16F
S1232820A06940F00200A06103E0A06920F00200A061BDE8F08170B504460D46164643489A
S1232840844200D105E040F24221AFF26030FDF7E5FC0DB1012D00D105E040F24321AFF284
S12328607430FDF7DBFC1F2E00DC05E04FF41171AFF28830FDF7D2FC012D04D1E06940EA81
S12328800620E06103E0E06940EA0640E06170BD70B504460E4615462C48844200D105E0B5
S12328A040F25921AFF2BC30FDF7B8FC0DB1012D00D105E040F25A21AFF2D030FDF7AEFCA5
S12328C0012E0BD1012D04D1E06940F00100E0610FE0E06920F00100E0610AE0012D04D1B4
S12328E0E06940F00200E06103E0E06920F00200E06170BD70B504460D461448844200D1B7
S123290005E040F27721AFF21C40FDF787FC1DB9E069C0F3400070BDE06900F00100FAE736
S123292070B504460D460948844200D105E04FF42271AFF24840FDF771FC1DB9E069C0F3D2
S1232940074070BDE069C0F30720FAE700800A402DE9F0438BB005460E4617469846DDE90D
S123296012943178E21704EB9272B1EBA20F27D10020307032200690CDF81C90CDF8209045
S123298072B601A906A8FE4A1268904762B633200690287800FB0480079008970994F948E6
S12329A000684FF47A71B0FBF1F00A9072B601A906A8F34A1268904762B62878401C28709D
S12329C00BB0BDE8F083F0B58DB004460F46EE48007810BB322008901B2009900A9072B6A6
S12329E003A908A8E64A1268904762B6342008901B2009900A90E34800684FF47A71B0FB18
S1232A00F1F00B9072B603A908A8DD4A1268904762B6DE480068DE490860A08A218A401AD6
S1232A2000EB4000DB49098801EBC000D9490880D9480078402803D0D3480078002838D1C4
S1232A40D548007840280FD1D4480078401CD3490870CE48006800F50040CC4908600020C1
S1232A60CC490880CC49087032200890CB4800780990CA4800780A9072B603A908A8C04A68
S1232A801268904762B634200890C44800780990C24800780A90BB4800684FF47A71B0FB60
S1232AA0F1F00B9072B603A908A8B54A1268904762B6002557E005EB4501A06950F82100A6
S1232AC0B749B84A127841F82200B6480078401CB44908704FF40070B0490978CDE90010D1
S1232AE0AA48AF4AAF490368AB48FFF731FF05EB4501A06900EB81004168A948A94A1278A9
S1232B0040F82210A7480078401CA64908704FF40070A2490978CDE900109C48A04AA14980
S1232B2003689D48FFF714FF05EB4501A06900EB810080689A499B4A127841F82200994817
S1232B400078401C974908704FF4007093490978CDE900108D48924A924903688E48FFF7AC
S1232B60F7FE681CC5B2D4E90410401AA842A2D8002557E005EB4501E06950F821108848AE
S1232B80884A127840F8221086480078401C854908704FF4007081490978CDE900107B48FC
S1232BA07F4A804903687C48FFF7D2FE05EB4501E06900EB8100406879497A4A127841F8AE
S1232BC0220078480078401C764908704FF4007072490978CDE900106C48714A71490368BB
S1232BE06D48FFF7B5FE05EB4501E06900EB810080686B496B4A127841F822006948007829
S1232C00401C684908704FF4007064490978CDE900105E48624A634903685F48FFF798FEE8
S1232C20681CC5B2D4E90410401AA842A2D85E495E4A1278206841F822005C480078401CD2
S1232C405A4908704FF400701B21594B564ACDE9001056495748FFF77BFE5348534A1278ED
S1232C60616840F8221051480078401C4F4908704FF400701B214E4B4B4ACDE900104B4929
S1232C804C48FFF765FE4848484A1278A16840F8221046480078401C444908704FF400700A
S1232CA01B21434B404ACDE9001040494148FFF74FFE3D493D4A1278E06841F822003B48E4
S1232CC00078401C394908704FF400701B21384B354ACDE9001035493648FFF739FE3249C7
S1232CE0324A1278206941F8220030480078401C2E4908704FF400701B212D4B2A4ACDE91A
S1232D0000102A492B48FFF723FE2748274A1278616940F8221025480078401C23490870DF
S1232D204FF400701B21224B1F4ACDE900101F492048FFF70DFE164801681B481B4A12781A
S1232D4040F8221019480078401C184908704FF400701B21164B144ACDE9001013491548CA
S1232D60FFF7F6FDD4E90410401A00EB40000849096801EB80000C490C4A12781CE00000B1
S1232D8000C007200005001014C0072008C0072010C007200EC0072015C0072004C0072076
S1232DA0000100100CC00720000300100DC007200081060016C0072041F822004048007825
S1232DC0401C3F4908704FF400701B213D4B3E4ACDE900103A493D48FFF7BAFD3C4800781D
S1232DE0401C3B490870012F53D13A48067805E00020394941F82600701CC6B2802EF7DBB9
S1232E002F48067805E000202F4941F82600701CC6B2802EF7DB80202E49087080002F49D2
S1232E200978CDE900102E482B4A2A4903682D48FFF78EFD80202249087080001B21214BDD
S1232E40214ACDE900101E492048FFF781FD012605E000201C4941F82600701CC6B21D48A1
S1232E6000788642F5DB1A480078174908604020134908700020154908704FF480701B2103
S1232E804FF4D023104ACDE900100D490F48FFF75FFDD4E90410401A00EB400012490968B7
S1232EA001EBC000104908600DB0F0BD4FF4D02000880E49088003480D49086070470000DD
S1232EC00DC00720008106000003001016C0072014C007200CC007200001001004C0072079
S1232EE008C0072015C0072010C00720CA050010CC0500109EB000201A9000BF012019908B
S1232F0018900020179042F21070169000200E900024FE49FE48FEF7B1FCFDF781F9012044
S1232F208DF86E0000208DF8700002208DF86F0019208DF86D0000208DF86C001BA8FDF77C
S1232F408FFB00224FF000711046FEF723FF01220221EF48FEF789FDED48006840F470600B
S1232F60EB49086000F02DFDEAA004F035F8EAA004F032F800F03AFF4FF400610020FEF762
S1232F801DFF03F063FAE74803F0B4FA002003F004FB03F06CFA00F029FFE3A004F01CF8E3
S1232FA00F2112A803F010FF81E2E44801F097FAE348007801287DD1E24800780128FAD160
S1232FC0032744E000200C9034E000BFDD4800780028FBD0DC4800680490DB484068059000
S1232FE0D94880680690D848C0680790D64800690890D54840690990D34880690A90D24819
S1233000C0690B900020CF49087000240DE004A850F824000121B940084028B14FF07E51C5
S12330200D9808F019F90D90641C082CEFD30C98401C0C900C98B0F5806FC6D300210D9897
S123304008F040FA00D10F9700200D907F1C0F2FB8D30F98471CBC4800680490BA484068EE
S12330600590B94880680690B748C0680790B64800690890B44840690990B34880690A90BF
S1233080B148C0690B900020AE4908700024B2E104A850F82400F84004A941F8240004A823
S12330A050F82400E0B104A850F82400B0F5000F0BD300E0A3E104A850F82400A0F5000054
S12330C041F8240001201A900CE004A850F8240000F5000004A941F8240001201A9001E015
S12330E000201A901A9801287ED104F0010000287BD096480078012877D1199801282BD1D3
S1233100934800689349096888420FD204A850F82400914B0CCB801843F100018E4A03C23B
S12331208B480068401C8A4908605AE18B480278521E8948D0E9009A48465146FDF7C5F8C7
S123314005460021844A1160516000208449086019907F49086051E17D4800687D4909684B
S1233160884219D204A951F82410691A04AA52F82420AA1A01FB02F008F086FA0390784830
S12331800168039808F068F87549086070480068401C6F49086024E16E48006808F074FA84
S12331A003906F48006807F0FFF90290039908F0C7F86B4908600020654908600120199069
S12331C068A003F009FF294669A003F005FF6448006808F015F802460B46CDE9020167A007
S12331E003F0FAFE284601E004E117E008F04CFA00905B480168009808F0A2F8019007F029
S1233200FFFF02460B46CDE902015EA003F0E4FE0020534908604D490870E2E05C48007877
S12332200128B8D1189801282CD15A4800684949096888420FD204A850F82400564B0CCBBA
S1233240801843F10001544A03C252480068401C50490860C5E041480278521E4E48D0E974
S123326000B01D9058461D99FDF72FF806460021494A11605160002048490860189045490D
S12332800860BBE04348006832490968884219D204A951F82410711A04AA52F82420B21AD6
S12332A001FB02F008F0F0F903903C480168039807F0D2FF3949086036480068401C3549AE
S12332C008608EE02348006808F0DEF903903348006807F069F90290039908F031F82F49DC
S12332E0086000202B490860012018902CA003F073FE31461EA003F06FFE2848006807F009
S12333007FFF02460B46CDE902014DE0400D0300004003400C0000005374617274656421D5
S123332000000000A08601000A5479706520636F6D6D616E642E0A3E000000001AC0072040
S12333402EC00720C0050010F80500102FC007201805001034C007202005001038C00720C0
S1233360380500100A4D61676E69747564653A000A4D65616E202575000000000A534B4FDE
S1233380202566000A454E4F422025660A00000030C007201C0500103005001040050010B9
S12333A00A50686173653A00AFF2300003F014FE304608F069F900903D480168009807F021
S12333C0BFFF019007F01CFF02460B46CDE90201AFF2500003F000FE0020354908603549D0
S12333E008703548007828B93248007810B9002032490870641C082CFFF44AAE00BF3048D7
S12334000078012853D12FA003F0E6FD35A003F0E3FD3BA003F0E0FD4FF000083DE03D4802
S123342000883D490988401A00FB08F03B490988B0FBF1F038490988084439490880098802
S12334404FF47A7201FB02F003F054F803F00FF80A2000F0B5FE3248018810A802F00BFB92
S12334602F4801882FA003F0B7FD109807F0C8FE02460B46CDE902012CA003F0ADFD119809
S123348007F0BEFE02460B46CDE9020129A003F0A3FD08F101001FFA80F820480088804587
S12334A0BDDB26A003F098FD0020054908707CE54005001030C007202FC007202EC0072044
S12334C0090500100A0A496D706564616E6365207673206672657175656E637920646174DC
S12334E0613A00000A4672657175656E6379094D61676E69747564650950686173650000D0
S12335000A6B487A09094F686D09096465677265650A0A000C0500100A0500100E05001045
S1233520440500102575090900000000252E316609090000252E31660A0000000A5479704B
S123354065206E65787420636F6D6D616E642E0A3E00000010B5002807DACA06140EFE4AA6
S123356000F00F031B1FD45403E0CA06130EFB4A135410BD10B5FA49FA48FEF77FF90122BC
S12335800221F848FEF771FA10BD10B50020F649887008710220C87000204870087008460A
S12335A0FDF75EF8012211460020FEF7F3FB0020ED49887008710220C87001204870002026
S12335C008700846FDF74CF8012202210020FEF7E1FB0120E4498870002008710220C87079
S12335E04870002008700846FDF73AF8012204210020FEF7CFFB0120DB4988700020087106
S12336000220C87003204870002008700846FDF727F8002208211046FEF7BCFB0120D249EF
S12336208870002008710220C87006204870002008700846FDF714F8002240211046FEF709
S1233640A9FB0120C8498870002008710220C87007204870002008700846FDF701F80122D0
S123366080210020FEF796FB0120BF498870002008710220C8700820487000200870084625
S1233680FCF7EEFF012211020020FEF783FB0020B549887008710220C87009204870002093
S12336A008700846FCF7DCFF012251020020FEF771FB0020AC49887008710220C8700A2071
S12336C04870002008700846FCF7CAFF012291020020FEF75FFB0020A349887008710220C8
S12336E0C8700B204870002008700846FCF7B8FF00224FF400611046FEF74CFB03209A49BD
S12337008870002008710220C8700F204870002008700846FCF7A4FF0122D1030020FEF74B
S123372039FB032090498870002008710220C87011204870002008700846FCF791FF0022F6
S12337404FF400311046FEF725FB032086498870002008710220C870122048700020087027
S12337600846FCF77DFF012291040020FEF712FB01207D498870002008710220C8701920A3
S12337804870002008700846FCF76AFF00224FF000711046FEF7FEFA012073498870002021
S12337A008710220C8701A204870002008700846FCF756FF00224FF080611046FEF7EAFAA1
S12337C0012069498870002008710220C8701D204870002008700846FCF742FF00224FF0B7
S12337E000511046FEF7D6FA01205F498870002008710220C8701E204870002008700846C9
S1233800FCF72EFF00224FF080411046FEF7C2FA00205549887008710220C87004204870F6
S1233820012008700846FCF71BFF012210211046FEF7B0FA00204C49887008710220C870C7
S123384008204870012008700846FCF709FF00224FF480710120FEF79DFA002042498870FC
S123386008710220C87009204870012008700846FCF7F6FE00224FF400710120FEF78AFA52
S1233880012039498870002008710220C87012204870012008700846FCF7E2FE00224FF48D
S12338A080210120FEF776FA00202F49887008710220C87013204870012008700846FCF7B5
S12338C0CFFE0122D1041046FEF764FA00202649887008710220C870162048700120087095
S12338E00846FCF7BDFE012291051046FEF752FA00201D49887008710220C8701720487038
S1233900012008700846FCF7ABFE0122D1051046FEF740FA00201449887008710220C8705A
S12339201E204870012008700846FCF799FE00224FF080410120FEF72DFA00200A49887052
S123394008710220C8701F204870012008700846FCF786FE002209E018ED00E000E400E087
S1233960400D030000400340520500104FF000410120FEF70FFA00206B4988700871022003
S1233980C87008204870022008700846FCF768FE012211020220FEF7FDF9012062498870C3
S12339A0002008710220C87009204870022008700846FCF755FE012251020220FEF7EAF991
S12339C010BD10B54FF480010120FEF701FAFFF7DCFDFFF7CFFD00F009FA00F02FFA00F0EF
S12339E005FA5248FEF7D4FB01224FF650614F48FEF712FD00224FF650614C48FEF70CFD08
S1233A0000204B4908704870887000224748FEF7F6FD002046490870012048700020887015
S1233A2001224248FEF7EBFD032042490870002048708870C870087148710A4601213B48A3
S1233A40FEF7B9FB03203B490870002048708870C870087148710A4600213448FEF7ABFBD8
S1233A60082201213148FEF7E6FE01224FF650612E48FEF7D1FC00224FF650612B48FEF7D3
S1233A80CBFC02F0BDFD4FF400210120FEF7A0F902210020FEF792F94FF480610020FEF7A0
S1233AA097F94FF400010120FEF792F94FF480710220FEF783F910210120FEF77FF91B48A4
S1233AC0406840F01800194948600846006840F0180008600846406820F01800486008466E
S1233AE0006820F01800086000211B20FFF732FD1E210520FFF72EFD1B20012181400E4A4E
S1233B00430942F8231000BF012211460748FEF7BFFE1B20012181404209920002F1E022BE
S1233B20C2F8001100BF10BD5205001000800A404E0500104605001080E200E02DE9FE4F96
S1233B4004460D4616469A464FF0000B701E06F0E0FF07463A460B4600204FF0804105F0A8
S1233B60FFFCCDE9000106F0A7FF80B20290FE48844200D103E02721FCA0FCF74FFB05B198
S1233B8000BF00BF4FF000091CE00121F648FDF7CFFE00BF04F1100050F8250000F00040DD
S1233BA00028F7D004F1100050F825000BEB101BED48006820F08070EB49086009F101004B
S1233BC01FFA80F902988145DFDB701EA0EB0A002BFA00F080B2BDE8FE8F2DE9F04F99B0FB
S1233BE0074601200A900020089009900021069107910590002504908246834603263EE0F2
S1233C0000200C9031E000BFDC4800780028FBD0DB4800680D90DA4840680E90D8488068ED
S1233C200F90D748C0681090D54800691190D44840691290D24880691390D148C0691490E0
S1233C400020CE49087000240AE00DA850F824000121B140084010B10498401C0490641C5A
S1233C60082CF2D30C98401C0C900C98B0F5806FC9D3049800B9354600200490761C0F2E84
S1233C80BED36E1C781E06F044FF02460B46CDE9000100204FF0804105F062FCCDE90201BA
S1233CA006F00AFF054696E0B44800780128FAD1B34800680D90B24840680E90B0488068B8
S1233CC00F90AF48C0681090AD4800691190AC4840691290AA4880691390A948C069149008
S1233CE00020A6490870002472E00DA850F82400F0400DA941F824000DA850F82400D0B1BD
S1233D000DA850F82400B0F5000F09D30DA850F82400A0F5000041F8240001200B900CE033
S1233D200DA850F8240000F500000DA941F8240001200B9001E000200B900B98012846D11B
S1233D40AA4501D3AB4520D204F0010070B1AA453DD20DA850F82420DDE90801101841F13C
S1233D600003CDE908030AF1010A30E0AB452ED20DA850F82420DDE90601101841F100030A
S1233D80CDE906030BF1010B21E07A1EDDE90810CDE9170108461799FCF797FA000A40EA5D
S1233DA001697A1EDDE90610CDE9150108461599FCF78BFA000A40EA0168002108910991F0
S1233DC0069107918A468B4600200A9002E0641C082C8AD300BF0A9801283FF465AF1FFA78
S1233DE089F068F31F4019B0BDE8F08F70B5032515E0681EC5B201210020FDF7DFFF002428
S1233E0000E0641C5F488442FBD301210020FDF7DFFF002400E0641C5A488442FBD3002D08
S1233E20E7D170BD10B501210020FDF7C7FF10BD10B501210020FDF7CBFF10BD1CB54FF465
S1233E407A740020009028E04FF480010120FDF7B5FF4FF480010120FDF7BAFF00200190E8
S1233E6008E04FF47A7090FBF4F0BDF80410084480B20190BDF8041004F164008142F0DB32
S1233E80BDF80000401C80B20090BDF80000032803DD00200090601E84B2002CD4DC4FF408
S1233EA080010120FDF78AFF1CBD2DE9F04F89B0824635480690FFF7B5FF3448006807F018
S1233EC0E3FB05903248006807F0DEFB04903048006807F0D9FB0390DAF8080007F0D4FB47
S1233EE001904FF08040069907F016FC0090019907F012FC0290039907F00EFC83460499C2
S1233F0007F00AFC8146059907F006FC804607F077F906461F4A204B06F062FE044606F05F
S1233F2085FB08901948006807F0AEFB0590DAF8080007F0A9FB4FF080410390089807F0C8
S1233F40EBFB0190069907F0E7FB0290039907F0E3FB0490059907F0DFFB834607F050F95F
S1233F6080460C4A0C4B19E000400340736F757263655C53797374656D2E6300C005001076
S1233F80F805001060AE0A00DA0F4940A8050010B805001011EA2D819997713D06F020FE61
S1233FA006460022FE4B06F073FB044606F03EFB0790DDE9071007F0C3F90646F94800684D
S1233FC007F062FB0746F848006807F05DFB8046079907F0B5F90546394607F03DF90446F9
S1233FE0314605F0F3F8CAF80000EE48006807F04BFB0490EC48006807F046FB039007992E
S123400007F09EF98346049907F026F98146DDE9071007F095F94946059007F091F98046FE
S123402007F0EEF8064604F0FFFE81F00041044606F0FCFACAF80400FFF7FAFE09B0BDE868
S1234040F08F2DE9FF4F8FB083468A464FEACB3B584607F019FB029005F0A2F9039007F00D
S1234060CFF8D24AD24BCDE9040106F0DFFFCDE90801119807F008FB009005F091F90190AB
S123408007F0BEF8CB4ACC4BCDE9020106F0CEFF0022CA4BCDE9040106F0A2FDCDE9060183
S12340A0DDE9082306F0B0FBCDE90A0107F03AFDCDE90C01584607F0E7FA029005F070F952
S12340C0039007F09DF8B94AB94BCDE9040106F0ADFFCDE90801129807F0D6FA009005F0A4
S12340E05FF9019007F08CF8B24AB34BCDE9020106F09CFF0022B14BCDE9040106F070FDD8
S1234100CDE90601DDE9082306F07EFBCDE90A0107F008FD04460D46AAF1010007F06CFA2B
S12341200A90DDE90C01221A65EB0101104607F07BFA09900A9907F003F90B9007F02EFDD2
S12341408046894626462F4634E03046394607F06BFA4FF09E41029007F0F2F8039007F065
S12341604FF8CDE90601584607F08EFA4FF08E41029007F0E5F8039007F042F8CDE9040127
S1234180DDE9062305F0ECF900228D4BCDE9080106F026FDCDE90A0106F08EFCAAF10101A2
S12341A01C9A42F82100084600F0FF0AB6EB080667EB0907BAF1000FC7DC13B0BDE8F08F4E
S12341C042F20E41484300E0401E0028FCD170472DE9F04F95B0012013900020ADF852006E
S12341E013208DF8510000208DF85000002465E1744850F824004FF47A71484312906A491D
S12342000968684A1268881806F09AFCCDE90E016D48006806F094FCCDE90801129806F00A
S12342208FFC6A4A6A4BCDE9040106F0D9FCCDE90601DDE9082306F0D3FC664A664BCDE976
S12342400A0106F0CDFCCDE90C01DDE90E2306F0C7FCCDE9100106F0E9F905465148006832
S123426006F06EFCCDE90E014F48006806F068FCCDE90A015448006806F062FCCDE90401E8
S1234280129806F05DFC514A514BCDE9000106F0A7FCCDE90201DDE9042306F0A1FC4D4ACA
S12342A04D4BCDE9060106F09BFCCDE90801DDE90A2306F095FCCDE90C01DDE90E2306F02F
S12342C08FFCCDE9100106F0B1F980462946284607F022FA4FF07E510D9006F0BDFF41464E
S12342E00F90284607F018FA0D902F48006807F0CBF90C900D9906F0AFFF0E900F9907F04A
S12343001FF8364911900968354A1268881807F0BBF91090119906F09FFF064629462846A6
S123432007F0FAF94FF07E510F9006F095FF11901D48006807F0A8F929460E9007F0ECF969
S123434041460F9007F0E5FA1090119906F0F8FF81463146484606F0F3FF119004F076FE69
S123436007464FF08041484605F0EAFD4FF080410C90304605F0E4FD0B900C9906F06CFFF9
S12343800D9006F03DFFCDE90E0106F0E7F8CDE9100106F04BF982460B48006822E000002A
S12343A00000F03FB4050010B80500108FE4F21FD20F1240325A4755134403400000E0419A
S12343C00000704058050010A80500104AD8124DFB21194011EA2D819997713DAC050010C1
S12343E0B005001006F0ACFBCDE90A01129806F0A7FBFE4AFE4BCDE9060106F0F1FBCDE96E
S12344000801DDE90A2306F0EBFBFA4AFA4BCDE90C0106F0E5FB02460B46CDE90E01002020
S1234420F64906F0F1F9CDE9100106F0FFF88346F349504607F03CF90BD2F249096801EB69
S12344408101880007F020F95946119007F030FA02D3ED48006858BB1398012803D1002090
S123446013908DF85040E949504607F021FA16D2384606F0C5FEE64AE64BCDE9100106F069
S1234480ADFC0CD2DF48006807F0FEF8E249109006F056FF5946119007F00AF902D3DA48CE
S12344A0006830B9BDF852000C3080B2ADF8520002E08DF8514004E0601CC4B2132CFFF639
S12344C097AE00BFD048006808B9132001E09DF851008DF85100149815B0BDE8F08F2DE918
S12344E0F04F8FB00746012008903888B0F5A57F7BD006DC78B1A0F2311088B1082879D1CF
S123450033E0B0F5AA7F76D0B0F5AF7F74D0B0F5B47FF4D1EFE000BF40F23110388000BF44
S1234520BE480078072803D000200FB0BDE8F08F00BFBB480078002871D00020B8490870B8
S1234540B8A1B94803F0AEF8002825D1B7480068032821D1B64802F03FFD0020B049087005
S123456000BF40F23910388000BFAD48007808B90020DAE700BF0020A9490870A24AADA1F4
S1234580A94802F01FFEA0480168ABA002F024FDB0A002F021FDF0E3A34802F0D7FE80B152
S12345A000209F490870984AA2A19F4802F00AFE95480168A0A002F00FFDA6A002F00CFDAC
S12345C0E9E7ADA1984803F06DF848BB97480068032826D1A94802F0FFFC002090490870C6
S12345E000BF4FF4A570388000BF8D48007820B900209AE7C2E328E052E000BF00208849D3
S123460008709F4A8BA1884802F0DCFD9C4801689CA002F0E1FC8FA002F0DEFCBBE7AEE3E8
S1234620FFE7A0A1804803F03DF828BB7F480068032821D19C4802F0CFFC00207849087036
S123464000BF4FF4AA70388000BF7548007808B900206AE700BF002071490870934A75A158
S1234660714802F0AFFD9148016891A002F0B4FC78A002F0B1FC8EE796A16B4803F012F8B7
S123468028BB6A480068032821D1934802F0A4FC00206349087000BF4FF4AF70388000BFB3
S12346A05F48007808B900203FE700BF00205C490870544A5FA15C4802F084FD514801681D
S12346C086A002F089FC63A002F086FC63E78CA1554802F0E7FF28BB54480068032821D1D2
S12346E0884802F079FC00204D49087000BF4FF4B470388000BF4A48007808B9002014E7CE
S123470000BF0020464908707F4A4AA1464802F059FD7D4801687DA002F05EFC4DA002F0AF
S12347205BFC38E74148006800285DD13C4908707F48007880B9202002F080FB7D49086068
S1234740F02002F07BFB7B4909688861F02002F075FB78490968C861FFF73AFD0990BDF877
S1234760260048B974A002F037FC6420FFF728FD00207F4908700EE76D4801787DA002F0A4
S12347802BFC7B480078012804D1002169480068FEF719F99DF824006649096808619DF89D
S12347A025006449096848619DF82400724951F8200080027149096888607148D0F8009086
S12347C06E490968886801F095FE6C490968886806F05AFF0490484606F056FF0E4902907E
S12347E006F09AFF0390CDE073E300004AD8124DFB21194011EA2D819997713D0000F03FE4
S123480000009644B8050010A80500100000C8423629A355DEECEBBF0000204124C00720EF
S12348202DC007206361700068C0072028C00720FCC20000257500000A0D4361706163691E
S1234840746F722076616C75652069732025642070462E000A54797065206E65787420630B
S1234860616C6962726174696E6720636F6D6D616E642E0A3E000000746F7000B8C10000D6
S1234880AC0500100A546F70207265736973746F722076616C7565206973202564204F68C2
S12348A06D2E0000626F740064C10000B00500100A426F74746F6D207265736973746F7210
S12348C02076616C7565206973202564204F686D2E0000007061720080C200000A506172CE
S12348E072616C656C207265736973746F722076616C7565206973202564204F686D2E00B5
S12349007365720008C20000B40500100A53657269616C207265736973746F722076616C4E
S12349207565206973202564204F686D2E000000D8050010D00500100A43617061636974F1
S12349406F722076616C756520746F6F206269672E20436F6E6E656374206C6F77657220F0
S123496063617061636974616E63652E0A3E0000D90500100A25750058050010D405001069
S1234980C4050010049906F0DBFCFD49059006F0D7FC069006F010FE0790FFF711FCF948B7
S12349A00068FFF782FAF748006800680D90F548006840680C90F4480078FFF70EF981460C
S12349C04FEA194B1FFA89FAF0480068C0F804A09DF8246021E19DF82400B04206D00B985F
S12349E00D900A980C90C246DDF838B0E849701C51F820004FF47A714843E24909688860B0
S1234A00E0490968886801F075FD0A20FFF7D8FBDC480068FFF749FADA48006800680B9060
S1234A20D848006840680A90D7480078FFF7D5F881464FEA19400E901FFA89F8D44A701C13
S1234A4052F820104246D3A00E9B02F0C5FACF48006880699DF82410711A01EB410100EBAE
S1234A608100C0F80880C9480068C0699DF82410711A01EB410100EB8100C0F808B0A8EBDE
S1234A800A00002801DB014600E04142012921DC0020BE4909688969BC4A12681269B21AE2
S1234AA002EB420241F822000B990D9806F0D4FB4FF08041079006F043FCB449096889692C
S1234AC0B24A12681269B21A02EB420201EB8201486039E0A8EB0A0006F08EFD07900D9959
S1234AE00B9806F0A9FF0690079906F029FCA74909688969A54A12681269B21A02EB4202EC
S1234B0041F82200504606F0BFFD06909F48006880699E4A12681269B21A02EB420250F8FE
S1234B202210069806F0F8FD07900D9906F0F1FE964909688969954A12681269B21A02EBC5
S1234B40420201EB820148600E99A1EB0B00002801DB014600E04142012921DC00208B49EF
S1234B600968C969894A12681269B21A02EB420241F822000A990C9806F06EFB4FF08041C8
S1234B80079006F0DDFB81490968C9697F4A12681269B21A02EB420201EB820148603AE053
S1234BA00E99A1EB0B0006F027FD07900C990A9806F042FF0690079906F0C2FB734909686E
S1234BC0C969724A12681269B21A02EB420241F82200584606F058FD06906C480068C069D2
S1234BE06A4A12681269B21A02EB420250F82210069806F091FD07900C9906F08AFE634909
S1234C000968C969614A12681269B21A02EB420201EB82014860701CC6B29DF82500B04289
S1234C203FF7D9AE4FF6FF70584909680860002419E056480068806904EB440100EB8100D9
S1234C40806852490968096888420AD24F480068806904EB440100EB810080684B490968D0
S1234C600860601CC4B2494800684069474909680969401AA042DCD849480078401C4849DB
S1234C80087042480068016846A002F0A5F93F480068416847A002F09FF93C4800688168E9
S1234CA048A002F099F939480068C16849A002F093F93648006801694AA002F08DF93348DE
S1234CC0006841694BA002F087F94EA002F084F900252AE02D490968896905EB450201EBD9
S1234CE08201486806F08CFACDE9060127490968896905EB450251F8220006F081FACDE9A8
S1234D00040122480068806905EB450100EB810080680290DDE90601CDE900013CA0DDE98D
S1234D20042302F059F9681CC5B2184800684069164909680969401AA842CBD83DA002F0A0
S1234D404BF9002594E011490968C96905EB450201EB8201486806F053FACDE906010B49CB
S1234D600968C96905EB450251F82200344906F0D3FC039006F044FA64E0DAE1E3E1E1E15C
S1234D8000007A44D405001038C00720D0050010580500100A253475202534752025750077
S1234DA0D80500100A675A6D696E20203D202531307500000A675A6D617820203D20253157
S1234DC0307500000A6750486D696E203D202531307500000A6750486D6178203D20253143
S1234DE0307500000A6E466D696E20203D202531307500000A6E466D617820203D20253179
S1234E00307500000A5A61727261793A000000000A6B2C20622C205A6D696E203D2025314C
S1234E20302E35662C202531302E35662C202531307500000A504861727261793A00000098
S1234E400050C347CDE90401F9480068C06905EB450100EB810080680290DDE90601CDE9C8
S1234E600001F4A0DDE9042302F0B6F8681CC5B2EF4800684069EE4909680969401AA8426B
S1234E803FF661AFF6480078C8281BD10121E8480068FDF798FDE6490968886901F0FDFF76
S1234EA0E3490968C86901F0F8FFE148006801F0F4FFECA002F090F8FDF7F8FF0020F44975
S1234EC0087002E0F34802F087F80120F24908702FE1F2A1F34802F0E5FB48BBF24800689F
S1234EE0042825D1DE480078D8B10121D0480068FDF769FDCE490968886901F0CEFFCC491D
S1234F000968C86901F0C9FFC948006801F0C5FFE64802F061F8FDF7C9FF0020DC49087012
S1234F2002E0E34802F058F80020D949087000E1E0A1DC4802F0B6FB00287DD1DA4800683B
S1234F400428FAD1FDF7B2FF0024CBE02146AFF2DC5002F041F8D948006800EB4410016852
S1234F60AFF2C01002F038F8D448006800EB44104168AFF2C01002F02FF8D048006800EB39
S1234F8044108168AFF2C41002F026F8CB48006800EB4410C168AFF2C41002F01DF8C748DD
S1234FA0006800EB44100169AFF2C81002F014F8C248006800EB44104169AFF2C81002F09F
S1234FC00BF8AFF2C01002F007F8002531E0BB49096801EB4411896905EB450201EB8201E4
S1234FE0486806F00DF9CDE90601B449096801EB4411896905EB450251F8220006F000F912
S1235000CDE90401AD48006800EB4410806905EB450100EB810080680290DDE90601CDE9AD
S12350200001AFF21420DDE9042301F0D5FF681CC5B2A248006800E060E000EB441040698F
S12350409E49096801EB44110969401AA842BED8AFF2202001F0C0FF002534E0974909684C
S123506001EB4411C96905EB450201EB8201486806F0C6F8CDE906019049096801EB441167
S1235080C96905EB450251F822008D4906F044FB039006F0B5F8CDE904018848006800EB19
S12350A04410C06905EB450100EB810080680290DDE90601CDE900015EA0DDE9042301F0F3
S12350C08BFF681CC5B27D48006800EB441040697A49096801EB44110969401AA842BDD872
S12350E0601CC4B2774800888442FFF62FAF76A001F072FF0020664908701AE081A169484E
S123510002F0D0FA78B96848006805280BD154480078401E5249087000205F4908707BA09D
S123512001F05AFF05E089A001F056FF0020944908700F215B4802F093FA00205A490860DB
S12351408F49087000BF00BF0020089038800320FFF7EBB92DE9F041054600275749096886
S1235160486806F091FA804600243CE05348006800EB44104069A84208D85049096801EB49
S12351804411086806F080FA064623E04B48006800EB44100069A84208D34849096801EB31
S12351A04411486806F070FA064613E04349096801EB44118A694149096801EB4411096968
S12351C0691A491E01EB410102EB8101886806F05BFA06463146404606F06AFB01D2274625
S12351E0B046601CC4B2374800888442BEDB3846BDE8F0812DE9F041054600272F49096827
S1235200086806F041FA80460024E8E02B48006800EB44104069A84208D82849096801EBDC
S12352204411086806F030FA0646CFE0AAE00000D00500100A6B202A2031305E352C20629A
S12352402C2050486D696E203D202531302E35662C202531302E35662C2025313075000074
S1235260D80500100A43616C6962726174696F6E20636F6D706C6574652E20547970652042
S12352806E65787420636F6D6D616E642E0A3E0024C0072074C00000D905001073746F70E3
S12352A00000000068C0072028C007201CC10000CCC000006C6F616400000000CC050010A2
S12352C00050C347CA0500100A43616C6962726174696F6E2064617461206C6F61646564DC
S12352E02066726F6D20666C6173682E2054797065206E65787420636F6D6D616E642E0AA2
S12353003E000000636C6561720000000A4C61737420696D706564616E63652063616C6927
S123532062726174696F6E20646174612064656C657465642E2054797065206E65787420DA
S1235340636F6D6D616E642E0A3E00000A57726F6E6720636F6D6D616E642E20506C65610E
S1235360736520747970652063616C6962726174696E6720636F6D6D616E642E0A3E00005A
S12353802DC00720FE48006800EB44100069A84208D3FB49096801EB4411486806F074F9D1
S12353A0064613E0F649096801EB44118A69F449096801EB44110969691A491E01EB41014D
S12353C002EB8101886806F05FF906464146304606F06EFA01D22746B046601CC4B2E9481C
S12353E000888442FFF612AF3846BDE8F08110B5024613880C88A34201DD012007E013886F
S12354000C88A34202DA4FF0FF3000E0002010BD0246DB48006800EB42100069884205D3DD
S1235420D748006800EB421040687047D448006800EB42104069884205D8D148006800EBC8
S123544042100068F1E7CE48006800EB42108369CB48006800EB42100069081A401E00EB83
S1235460400003EB80008068DFE72DE9F84F05460E46002401E0601CC4B2C34850F8240062
S1235480B042F8D30CB1601EC4B2BF4A611C52F8211052F82420881A06F0F6F88346BA49B9
S12354A051F82410701A06F0EFF85946009005F047FF8046132C1EDA21462846FFF7A8FF2B
S12354C0834606F0E1F88146601CC1B22846FFF79FFF834606F0D8F882464946504606F006
S12354E0ABFA4146009006F017F98346494605F0B3FE074607E021462846FFF789FF834698
S123550006F0C2F807469E48006800EB45100069A04201D99D4F08E09948006800EB45107A
S12355204169601C814200D2984F3846BDE8F88F2DE9F04105460F46002601E0701CC6B229
S1235540914850F82600B842F8D38F4850F82600B84211D100240AE031462046FFF758FFE2
S123556025F8240005EB84008470601CC4B2854800888442F0DB15E0701EC6B200240DE09A
S123558039462046FFF771FF804606F015F825F8240005EB84008470601CC4B2794800880F
S12355A08442EDDBAFF2B913042276480188284601F0C8FFBDE8F08170B505460E463168E6
S12355C0286806F075F901D2012408E03168286806F06EF802D24FF0FF3400E000242046BE
S12355E070BD2DE9F04705460F4614466448006800EB44100069A84218D9384606F044F8EC
S123560081465F48006800EB441080690168484606F082F880465A48006800EB4410806929
S12356204168404605F018FE064669E05448006800EB44104069A84237D8384606F024F822
S123564081464F48006800EB44104069401E4C4A126802EB44121269801A00EB4000484A15
S1235660126802EB4412926952F82010484606F053F880464248006800EB44104069401E27
S12356803F4A126802EB44121269801A00EB40003B4A126802EB4412926902EB800041682D
S12356A0404605F0D9FD06462AE0384605F0ECFF81463348006800EB44108069304A12681B
S12356C002EB44121269AA1A02EB420250F82210484606F021F880462948006800EB44101E
S12356E08069274A126802EB44121269AA1A02EB420200EB82004168404605F0ADFD064698
S12357003046BDE8F0872DE9FC5F07461446002501E0681CC5B21C4850F82500B842F8D344
S12357200DB1681EC5B21648006800EB44100069A84209D91249096801EB4411C969886841
S123574005F0A2FF064680E00D48006800EB44104069401E691C884222D20949096801EB0E
S123576044114969064A126802EB44121269891A491E01EB4101024A126802EB441207E06E
S1235780CC050010CA0500105805001000247449D26902EB8101886805F076FF064654E073
S12357A0FE4A691C52F8211052F82520881A05F06BFF8346F94951F82510781A05F064FF9A
S12357C0F7490190096801EB4411CA69F449096801EB44110B69691CC91A01EB410102EB29
S12357E081018968EE4A126802EB4412D269EC4B1B6803EB44131B69EB1A03EB430302EB59
S123580083029268881A05F03FFF0090019905F083FF8146594605F093FD8046E049096844
S123582001EB4411C969DE4A126802EB44121269AA1A02EB420201EB8201886805F024FF25
S12358408246414605F008FD06463046BDE8FC9F2DE9FF4F83B0814615461E46002401E0D7
S1235860601CC4B2CD4850F82400A842F8D30CB1601EC4B229463046FFF7F7FD824651461D
S1235880484606F046F84946019005F059FD834605F0B6FC21F00041074604F0C7FE02907D
S12358A0324621462846FFF72EFF82465046049906F0C2F80190049905F042FD834605F0A9
S12358C09FFC21F00041074604F0B0FE82465146029805F0C1FC0290029807B0BDE8F08F36
S12358E02DE9F04706460F4690469946AD490988C80001F0A3FA054600240CE005EBC40015
S1235900047123463A4649464046FFF7A1FF45F83400601CC4B2A34800888442EEDBAFF274
S1235920673308229F480188284601F00BFE28793070287B7070284601F0AFFABDE8F087DF
S12359402DE9F04707460C469046002501E0681CC5B2924850F82500B842F8D30DB1681E30
S1235960C5B28F48006800EB44100069A8421AD9404605F089FE82468948006800EB4410A6
S123598080690168504605F0C7FE81468448006800EB441080694168484605F05DFC06466D
S12359A03046BDE8F0877E48006800EB44104069A84238D8404605F067FE82467848006871
S12359C000EB44104069764A126802EB44121269801A401E00EB4000714A126802EB441248
S12359E0926952F82010504605F096FE81466C48006800EB44104069694A126802EB4412D4
S1235A001269801A401E00EB4000654A126802EB4412926902EB80004168484605F01CFCCC
S1235A2006463046BDE75E48006800EB4410007C281AC5B2404605F027FE8246584800680A
S1235A4000EB4410806905EB450250F82210504605F062FE81465248006800EB441080698D
S1235A6005EB450200EB82004168484605F0F4FB0646304695E733B59DB000201A9019907D
S1235A801890179016901490464800888000099001F0D4F90E9044480078FEF79EF81590AA
S1235AA01598000C1B90159880B21C903B48C16C1E9881427AD903E01A98401CC0B21A906A
S1235AC036491A9851F820101E988142F4D91A9818B11A98401EC0B21A901E990E98FFF7D8
S1235AE027FD2E491A98401C51F820102B4A1A9852F82000081A079005F0C6FD2749099075
S1235B001A9851F820101E98401A079005F0BCFD0890099905F014FC13901A98FFF71AFB62
S1235B2019901A98FFF766FB17901A98401CC0B20990FFF70FFB18901A98401CC0B209902E
S1235B40FFF758FB169015491A98401C51F82010124A1A9852F82000081A059005F094FDB8
S1235B600E4907901A9851F820101E98401A039005F08AFD05901A98401CC0B201460290FB
S1235B801898FFF745FC04B2DDE91901FFF740FC00B2201A039005F02FFD08E0580500105D
S1235BA0CC050010CA05001038C0072027E30490059905F0B1FD0690079905F0C1FB0990A3
S1235BC0DDE91901FFF724FC079005F05DFD0890099905F041FB1090FD491A98401C51F83D
S1235BE02010FB4A1A9852F82000081A059005F04BFDF74907901A9851F820101E98401A0A
S1235C00039005F041FD05901A98401CC0B2014602901698FFF7FCFB04B21A991798FFF723
S1235C20F7FB00B2201A039005F0E6FC0490059905F072FD0690079905F082FB09901A998E
S1235C401798FFF7E5FB079005F01EFD0890099905F002FB0F901C9805F016FD09900F994C
S1235C6005F026FE2DD84FF07E50139905F0E4FE09901C9A17991E98FFF762FE089009992D
S1235C8005F04AFD1D9908601C9A16991E98FFF757FE0890139905F03FFD09901D98006815
S1235CA001460890099805F0D7FA1D990860C9480078012804D1C8A0DDE9162101F08CF91A
S1235CC06AE31C9805F0E0FC0990109905F0F0FC2DD84FF07E50139905F0AEFE09901C9A1D
S1235CE019991E98FFF72CFE0890099905F014FD1D9908601C9A18991E98FFF721FE0890F0
S1235D00139905F009FD09901D98006801460890099805F0A1FA1D990860AE48007801285D
S1235D20CED1BCA0DDE9182101F056F934E31B9805F0AAFC09901C9805F0A6FC08900246FC
S1235D4014A8099B1E99FFF7CBFDA248007801280AD19DF8510009909DF8500008900146C1
S1235D60BBA0099A01F038F99DF8500008901A99FFF74EFB099005F087FC0D909DF85100FC
S1235D8008901A99FFF744FB099005F07DFC0C901A98401CC0B208909DF8500007900899A7
S1235DA0FFF736FB099005F06FFC0B901A98401CC0B208909DF8510007900899FFF728FBD5
S1235DC0099005F061FC0A901C9805F05DFC09900D9905F06DFD07D21C9805F055FC09902E
S1235DE00C9905F065FC0FD31C9805F04DFC09900D9905F05DFC46D21C9805F045FC0990A8
S1235E000C9905F055FD3ED2DDE90C0105F050FD1CD20C9805F08AFB04B20D9805F086FB90
S1235E2000B2201A079005F0E7FB09900D9805F07DFB01B21C9800B2401A079005F0DCFB83
S1235E400890099905F07CFA129047E00D9805F06DFB04B20C9805F069FB00B2201A079098
S1235E6005F0CAFB09900C9805F060FB01B21C9800B2401A079005F0BFFB0890099905F0EF
S1235E805FFA12902AE01C9805F0FEFB06900C9905F0D2FD079005F049FB09901C9805F046
S1235EA0F3FB06900D9905F0C7FD079005F03EFB0890002801DB089801E008984042099955
S1235EC0002901DB099901E009994942884203DD4FF07E50129001E0002012901C9805F064
S1235EE0D3FB09900B9905F0E3FC07D21C9805F0CBFB09900A9905F0DBFB0FD31C9805F0E5
S1235F00C3FB09900B9905F0D3FB46D21C9805F0BBFB09900A9905F0CBFC3ED2DDE90A016F
S1235F2005F0C6FC1CD20A9805F000FB04B20B9805F0FCFA00B2201A079005F05DFB099079
S1235F400B9805F0F3FA01B21C9800B2401A079005F052FB0890099905F0F2F9119096E03B
S1235F600B9805F0E3FA04B20A9805F0DFFA00B2201A079005F040FB09900A9805F0D6FACF
S1235F8001B21C9800B2401A079005F035FB0890099905F0D5F9119079E01C9805F074FBBF
S1235FA006900A9905F048FD079005F0BFFA09901C9805F069FB06900B9905F03DFD07907F
S1235FC005F0B4FA0890002850DB089850E0000058050010C80500106D6167203E3D205ACB
S1235FE06D61785F6F6E5F6375725F462C20495F5A63616C5F6D61785F31203D2025752CD7
S123600020495F5A63616C5F6D61785F32203D2025750A006D6167203C3D205A6D696E5FE8
S12360206F6E5F6375725F462C20495F5A63616C5F6D696E5F31203D2025752C20495F5A1B
S123604063616C5F6D696E5F32203D2025750A0070436F7272656374496E64657865732085
S12360603D2025752025750A00000000089840420999002901DB099901E00999494288421E
S123608003DD4FF07E50119001E0002011909DF85000024609901C991A98FFF7A2FA0D9070
S12360A09DF85100024609901C991A98FFF799FA0C909DF8500009901A98401CC0B20890F3
S12360C0099A1C99FFF78DFA0B909DF8510009901A98401CC0B20890099A1C99FFF781FAEC
S12360E00A90B0480078012827D10D9805F088F802460B46CDE90801ABA000F06DFF0C98B4
S123610005F07EF802460B46CDE90801B0A000F063FF0B9805F074F802460B46CDE90801BA
S1236120B5A000F059FF0A9805F06AF802460B46CDE90801BAA000F04FFF9DF8510003905C
S12361401A98401CC0B20290039A1C99FFF749FA0490119905F0E0FA06909DF85000029084
S12361601A98401CC0B20190029A1C99FFF739FA04904FF07E50119905F05EFC03900499C6
S123618005F0CAFA0590069905F066F80790139905F0C2FA09909DF85100024602901C99B9
S12361A01A98FFF71EFA0390129905F0B5FA05909DF85000024601901C991A98FFF711FA7E
S12361C003904FF07E50129905F036FC0290039905F0A2FA0490059905F03EF807904FF057
S12361E07E50139905F028FC0690079905F094FA0890099905F030F81D990860CCE01320FB
S12362001A901E990E98FFF793F91A98FEF7A2FF19901A98FEF7EEFF1790DDE91901FFF7EF
S1236220F7F8099005F030FA10901A991798FFF7EFF8099005F028FA0F901C9805F024FABE
S123624009900F9905F034FB07D81C9A17991E98FFF776FB1D9908609EE01C9805F014FA20
S12362600990109905F024FA07D81C9A19991E98FFF766FB1D9908608EE01B9805F004FA3F
S123628009901C9805F000FA0890024614A8099B1E99FFF725FB9DF8500008901A99FFF78B
S12362A0B7F81C990D1A9DF8510008901A99FFF7AFF804469DF8500008901A99FFF7A8F871
S12362C0201AB5FBF0F0099005F0DEF912901C9805F0DAF904909DF851005B49096801EBF2
S12362E0401081691A9800EB400051F8200001460390049805F010FA05909DF8510052498F
S1236300096801EB401081691A9800EB400001EB8000406801460490059804F09DFF079052
S12363204FF07E50129905F087FB0690079905F0F3F909901C9805F0A7F905909DF85000B7
S12363404149096801EB401081691A9800EB400051F8200001460490059805F0DDF90690F9
S12363609DF850003849096801EB401081691A9800EB400001EB80004068014605900698B1
S123638004F06AFF0790129905F0C6F90890099904F062FF1D9908600E9800F07EFD1FB019
S12363A030BD0000C80500105A5F667265715F696E6465785F70436F7272656374496E6475
S12363C0657865735B305D203D2025660A0000005A5F667265715F696E6465785F70436FAB
S12363E07272656374496E64657865735B315D203D2025660A0000005A5F667265715F697F
S12364006E6465782B315F70436F7272656374496E64657865735B305D203D2025660A0002
S12364205A5F667265715F696E6465782B315F70436F7272656374496E64657865735B3121
S12364405D203D2025660A00CC05001010B567496748FAF79DF901210802FBF70AFC3420C5
S12364606349086063496248FAF70EF910BD10B5FFF7ECFF02210020FBF7AAFC4FF40051D4
S12364805B48FAF799F900BF5948FAF790FA04468021FAF79BFA0028F6D002210020FBF763
S12364A08DFC52495248FAF736F910BD10B5FFF7CDFF02210020FBF78BFC4FF080410020CA
S12364C0FBF786FC4FF404514948FAF775F900BF4748FAF76CFA04468021FAF777FA0028A2
S12364E0F6D002210020FBF769FC40494048FAF712F910BDF8B504463F4804604FF080506D
S1236500A4FB005001463D4A0023284600F0ECFC0090FFF79BFF02210020FBF759FC4FF464
S123652004513348FAF748F900BF3148FAF73FFA05468021FAF74AFA0028F6D00098C0F399
S12365400D0040F480412A48FAF736F900BF2848FAF72DFA05468021FAF738FA0028F6D05F
S12365600098C0F38D3040F480412148FAF724F900BF1F48FAF71BFA05468021FAF726FA7A
S12365800028F6D0FFF773FF02210020FBF716FC16491748FAF7BFF8F8BD70B50446FFF7DA
S12365A055FF02210020FBF713FCC4F30B0040F440410F48FAF700F900BF0D48FAF7F7F992
S12365C005468021FAF702FA0028F6D0FFF74FFF02210020FBF7F2FB04490548FAF79BF86C
S12365E070BD10B5FFF762FF10BD000050C007200000024040420F00C405001040787D0168
S12366000EB54FF47A30019000208DF808008DF80A0003208DF8090001A9F848FAF7ECFA87
S12366200121F648FAF7DDFB6846FAF7A2FE6946F248FAF71FFE01220021F048FAF750FD3D
S12366400520012181404209920002F1E022C2F8001100BF0EBD00BFE849097D01F020017F
S12366600029F9D0E54A107070472DE9FC410025E248FAF7D3FD054605F00E0004286DD1A3
S1236680DE48FAF765FCDE490870084600780D2801D10A200870DA4800780A2847D0D8486D
S12366A00078082803D0D64800787F2819D1D548006888B3D3480068401ED2490860D248F6
S12366C00068401ED0490860D0490820F9F710FECE492020F9F70CFECC490820F9F708FEAC
S12366E01AE0C7480078112816D0C5480078132812D0C3490978C44A126811700846C34964
S1236700F9F7F6FDC0480068401CBF490860BD480068401CBB490860BA4800680F2805D1AA
S1236720BBA000F059FCBCA000F056FC63E1BE48B54908600120BD490870BD480078002823
S1236740F4D1BCA1B84800F0ADFF78B9AD48006803280BD10720B649087000E03AE1B6A0F3
S123676000F03AFC0020B14908702BE1C2A1AE4800F098FFE8B9A3480068012819D1FDF776
S12367801FFDBE4801886846FFF775F9BCA000F023FC009804F034FD064632460B46C0A09B
S12367A000F01AFCC1A000F017FC00209F49087008E10222C3A19C4800F007FFD0B99A4835
S12367C0801C00F0C3FDAD49088009884FF47A7201FB02F0FFF78EFEFFF749FEA748018806
S12367E0B9A000F0F9FBC0A000F0F6FB00208F490870E7E00522C2A18B4800F0E6FE88B96E
S12368008948401D00F0A2FDBF49088008460188BEA000F0E1FBB4A000F0DEFB002083491D
S12368200870CFE00522BEA17F4800F0CEFE88B97D48401D00F08AFDBB49088008460188E7
S1236840BAA000F0C9FBA8A000F0C6FB002077490870B7E00322BAA1734800F0B6FE88B91E
S12368607148C01C00F072FDB649088008460188B5A000F0B1FB9CA000F0AEFB00206B4928
S123688008709FE00222B4A1674800F09EFE50B95C480068022806D10120B0490870002081
S12368A0624908708EE00222ADA15F4800F08DFEC0B95D48801C00F049FDAA490870084606
S12368C00078401E01218140A7480160A5480178A6A000F081FB84A000F07EFB002053494A
S12368E008706FE04748006890B91B2001218140A24A430942F8231000BF0120A049087089
S1236900A0490870A049087000204849087059E001229EA1444800F058FE98B99148007879
S1236920FDF75BF90446210C99A000F055FBA1B29BA000F051FB6CA000F04EFB00203B4968
S123694008703FE002229BA1374800F03EFEB0B93548801C00F0FAFC97490870084600780B
S123696018B996A000F038FB02E09AA000F034FB4EA000F031FB00202C49087022E009226A
S12369809AA1294800F021FEB0B92748093000F0DDFC994908600846006818B997A000F066
S12369A01BFB02E09DA000F017FB40A000F014FB00201E49087005E0A0A000F00DFB002081
S12369C01A4908700F21184800F04AFE00200D49086010E005F00E0002280CD1A248408886
S12369E020B100F0CEF90549087004E0002201210248FAF775FBBDE8FC81000000C0004050
S1236A002CC0072028C007203CC00720E00500100A4572726F722E000A4275666665722072
S1236A2066756C6C2E00000068C007202DC0072024C0072063616C000A20456E7465726546
S1236A406420696E746F2063616C6962726174696E672073746174652E20547970652063A0
S1236A60616C6962726174696E6720636F6D6D616E642E0A3E0000006D00000040C00720EC
S1236A800A204D61676E6974756465206F6620696D706564616E63652069733A2000000019
